:020000040800F2
:10000000005000208948010829490108713201087F
:10001000294901082949010829490108000000006F
:100020000000000000000000000000002949010855
:10003000294901080000000029490108EF0F0108C3
:1000400029490108294901082949010829490108C4
:100050002949010829490108C5A50008C1A50008CA
:1000600029490108294901082949010829490108A4
:1000700029490108294901088DA9000829490108D1
:1000800055BF0008294901082949010829490108E3
:10009000294901082949010829490108BDA5000885
:1000A0002949010851BE00082949010861BE00081C
:1000B00041BE000831BE000821BE0008955C000862
:1000C000995C00088D5C0008915C000829490108D2
:1000D0002949010885A900087DA9000875A900081B
:1000E000FD0F010829490108294901080000000005
:1000F0000000000000000000000000000000000000
:0C01000000000000000000005FF808F1A3
:100110002DE9F04F764B774EA3B033600023736028
:100120000FF029FB18B90FF047FB07F0FBFE07F0B3
:10013000C3FF714A714C1378714D43F00103137082
:1001400000230A930B930C934FF4E0130D93236851
:10015000A87B43F480332360A36943F01003A361B9
:10016000236803F400330B930A9B01330A930B9B20
:100170001BB90A9BB3F5A06FF2D123685F4913F452
:10018000003301D0022315E00A6842F001020A6040
:100190000A93236803F002030B930A9B01330A932B
:1001A0000B9B1BB90A9BB3F5A06FF2D123689B0789
:1001B00039D501230C93534B53491A6842F010026E
:1001C0001A601A6822F003021A601A6842F00202EA
:1001D0001A606368636063686360636843F48063A4
:1001E00063604A4B1A68043B22F070425A60484AE6
:1001F0001160616821F47C116160596841F000412F
:100200005960D96821F40041D9609B681F0449BF37
:10021000404B4FF4E01313604FF480130D930C9B8D
:10022000012B01D117E0FEE7022B18D168B10D9B1D
:10023000B3F5801F02D14FF4A01305E00D9BB3F579
:10024000E01F02D14FF400130D930D9963680B4327
:1002500043F4803302E0636843F46013636023680F
:1002600043F0807323602168244B8901FBD55968D2
:1002700021F003015960596841F002015960636837
:100280001E4903F00C03082BF9D14B68DFF890806E
:1002900003F00C03042B03D0082B03D01A4B12E0FD
:1002A000136810E04B684868C3F38343C70303F146
:1002B000020301D4184905E0496811F4003F1168B0
:1002C00018BF49084B43C8F8003063681349C3F3AB
:1002D00003130B4493F87810D8F80030CB40C8F8DB
:1002E00000301368084A93421CD101221EE000BF6F
:1002F0006B770008D00000208833002000100240F7
:10030000A81000200020024000127A0004100140D2
:100310003C000020001BB70000093D005494010878
:10032000540000208A4A934202D10222894B1A705B
:10033000DFF878A2884BDFF878C2CAF80C30A369DE
:100340000DF1880B43F00103A361636A834FB3602F
:10035000636A604643F080736362A3694FF00009EB
:1003600043F01C03A3614FF6FF732BF82C3D594655
:10037000CDF80CC08DF85E900BF0F7FE384659466C
:100380000BF0F3FE594676480BF0EFFE754A5846DF
:10039000536843F0007353600CF0F4FC724A179BEF
:1003A0004946B3FBF2F3714A714813600C2216F010
:1003B0006CFDD8F800304FF47A72B3FBF2F36D4A5B
:1003C000013B5360F0238AF823300723C2F80890DA
:1003D0001360AB68DFF8DC91DFF8DC81C9F800302E
:1003E00098E80F008BE80F00A3694FF0100A43F064
:1003F0000803A361A369179843F00803A3610823C6
:100400003B6118A9C7F810A00BF0AFFE19981AA904
:100410000BF0ABFED9F80020100713D5564B93F81C
:100420008E21012A0ED8554993F88F21896811F041
:10043000805300F0F48505E04F4B002283F88F21B4
:1004400008F00EF8642010F0C8FDA0224C480021EE
:1004500016F01BFDE369002243F00703E361A36983
:1004600043F4006343F00C03A361444B4FF00008D6
:1004700003F10C0102F8018001320E2AF5D1FF22AE
:100480009A76DA761A775A773E4B3F4A41461A6097
:100490003E483C22D9F8004016F0F7FC4146C4F330
:1004A000801705233A4ADFF8E4E0885C0C224A43CF
:1004B00002F80E0047B91E3801289FBFFF2003F144
:1004C000FF3302F80E00DBB201310529EAD1314ACF
:1004D00095F805A01370304B304983F800A0304BDD
:1004E000264A3362C0330B602E4BA10603EBCA03CE
:1004F0005B7848BF01235362002340F2DC512A4A53
:1005000022F813100133082BF7D110A800211C2268
:1005100016F0BBFC14F4007CDFF8A09004F4006833
:100520004ED0A3040AD4B8F1000F0AD095F8822166
:1005300009F10C03012A08BF4B4604E0CDF81090E6
:1005400002E009F10C030493CDF858B03AE000BF83
:10055000001BB700B33300200005FA05000C014072
:10056000001001400000014040420F00D82C002044
:10057000DC2C002010E000E0A8100020D0000020BB
:100580002C2D0020B428002098120020B82800202C
:1005900053BF01087D100020D0080020482E002005
:1005A000B810002024BD0108E80F002000ED00E095
:1005B00000080140682E0020DC94010854940108D2
:1005C000CDF810C0BAF10E0F04D00AF0EF0ABAF15C
:1005D000080F02D101238DF852300120CDF814C04C
:1005E00008F044FCDDF814C018B14088003018BF92
:1005F0000120C4F340038DF84630C4F3403300F0CB
:1006000001008DF84030C4F3C0338DF845008DF8FB
:1006100048708DF84330B8F1000F07D095F882810B
:1006200008F1FF37D7F1000848EB0708C4F300438F
:100630008DF849301CF1000318BF01238DF84A30B2
:10064000736AB5F84401003318BF01238DF84B30AD
:10065000C4F300538DF84C30B5F8463104F0010175
:10066000ADF85030B5F85231C4F3C002ADF84E3099
:10067000C4F38043E404ADF8560048BFB6488DF893
:10068000473048BFB0F84C01B5F8503148BFADF81D
:100690005600B3F5FA7FADF8543084BF0023ADF8AF
:1006A000563095F8D231AD4886F82830002386F8C8
:1006B000293043709DF852308DF84480002B8DF81E
:1006C00041108DF842200CBF0023022301B902B172
:1006D000013309EB8309D9F898309A1E1A3307932E
:1006E000002306920593069B33F8024F06934FF6BC
:1006F000FF739C4200F08E819DF84520E3B2240AEE
:10070000E5B21AB19A1E012A40F27F819DF8482075
:1007100032B193491A018958924A914200F0758189
:100720009DF8490030B18E491A0189588D4A91428D
:1007300000F06B819DF8462052B18949039E01EB80
:1007400003114A68B24203D10A89102A00F05D8180
:100750009DF8432052B18249039E01EB03114A6880
:10076000B24203D10A89022A00F04F819DF8442049
:1007700052B17B497C4E01EB03114A68B24203D16E
:100780000A89022A00F04181169E7EB1744F3268B8
:1007900007EB03177968914208D13A89B1889142F1
:1007A00000F03381F188914200F02F81022C02D1B8
:1007B0009DF8402003E0012C04D19DF84120002A3F
:1007C00000F023819DF84B20654C1E015AB19DF825
:1007D000522042B9A3F10802012A04D8A259634960
:1007E0008A4208BF04259DF84C20344452B19DF83C
:1007F00052203AB910B10C3B012B01E0043B032B12
:1008000040F2EB80012D48D1594FDFF854A1FF236E
:1008100087F8703087F871300AEB06035A7B586806
:1008200003F108091B894FF00008ADF85C3017A9E7
:10083000022387F87480C7F880408DF85F308DF808
:100840005E2087F82C80C7F83080C7F83480C7F85E
:100850003880C7F86C8087F8728087F873800BF057
:1008600084FC5AF8060099F80210424609F0F7FC99
:10087000204641462A4609F0D9FF3E4BC7F88C80F6
:10088000C7F884303C4B2046C7F8883007F1840114
:1008900007F188020AF012F8B7E0022D4CD19DF85A
:1008A00014204FF01C0C0CFB02FC314B002703EB17
:1008B0000C0808939DF814304FF0010988F8753042
:1008C000274B88F876709A19517B506802F1080A14
:1008D00012898DF85E1088F87E7017A988F87490D8
:1008E000C8F88040CDF824C0ADF85C208DF85F508A
:1008F0000BF03BFC1A4B9AF8021098593A4609F053
:10090000AEFC204639464A4609F090FF1B49089B39
:10091000DDF824C0C8F8841019496344C8F8881069
:1009200003F18401C8F88C7020460A1D09F0C6FF47
:10093000059B4B44059368E0032D4CD19DF847304F
:100940000B4D104E03B395F82A70204608214FF640
:10095000FF72002333E000BFA8100020F900002040
:1009600080B7010800040040000C0140002C014049
:10097000D0000020CD9C0008AD9D000899A2000881
:10098000A39C0008F82C0020BDF8542095F82A708C
:10099000B2F5FA7FBDF856300BD986492046B1FB37
:1009A000F2F2082192B209F0AFFC834B46F827001F
:1009B0000AE082492046B1FBF2F2012192B209F02D
:1009C000A3FC7F4B46F82700C36095F82A3001331B
:1009D00085F82A3019E0042D17D1BDF84E20774B49
:1009E000784D93FBF2F22046BDF85030012192B2CF
:1009F00095F8296009F088FC95F8293005EB860602
:100A00000133C6F8540185F82930069B079A9342B2
:100A10007FF469AE6B4E6C4F96F82930002486F84F
:100A200074316A4B3C701D78A5F11703022B18D85E
:100A3000336A0021185903EB040812F0D5FE10B1F7
:100A4000736A6BBB25E0624B04EB030E98E80F0062
:100A50008EE80F003B7810340133C02C3B70E7D197
:100A6000EEE75C4B13F835C003EBC503D3F8048005
:100A700087F800C0B8F1000FE2D06445E0DA544ACC
:100A8000230103EB020E43440FCB01348EE80F0029
:100A9000F3E7514B1A68984612F4805F26D11FE0A5
:100AA0004E4B4F4A13F8350003EBC5035C681070DA
:100AB000002CEED000238342EBDAC3EBC3016218B3
:100AC000D2F80080DFF840C1013341F80C8001EB1F
:100AD0000C0E9188AEF8041092798EF80620EAE7A1
:100AE00005F0EF03082B3F4B24D125E03B78012B89
:100AF000F6D93D4C04EB031303F110071034BC424C
:100B0000EED054F8100C4FF07C5112F0D9FC4FF09D
:100B10007C5144F8100C54F8140C12F0D1FC4FF036
:100B20007C5144F8140C54F80C0C12F0C9FC44F835
:100B30000C0CE3E70E2D08D11A78182D42F01002A4
:100B40001A7008D110F01AFD05E01A78192D22F05C
:100B500010021A70F5E710F0F5FCD8F80030234FBA
:100B600058035EBF224B01221A70224A224D13788D
:100B7000224843F0040313703B784FF48052022B59
:100B800034BF142310238DF85E304FF002038DF82C
:100B90005F30AB69ADF85C2043F00403AB6134BF58
:100BA0000024012417A90BF0E0FA154B74B3154A81
:100BB0002DE000BF00127A00CD9D000840420F00DA
:100BC000BD9D0008D0000020282D0020D008002066
:100BD0000C08002024BD0108682E0020D0A50108C3
:100BE000D42D0020A018002014080020B3330020CA
:100BF000380D00208833002000100240000801401A
:100C000098330020E10E0108D52D0020724A002003
:100C10001A6010F001FA714B714C93E80300AB6954
:100C20008BE8030043F00803AB61179818A90BF099
:100C30009CFAEB694FF0030A43F48043EB612B69A4
:100C4000204643F480432B6118238DF85E305946CB
:100C50004FF42043ADF85C308DF85FA00BF085FABF
:100C60004FF0040C4FF48043204659468DF85EC087
:100C7000CDF80CC04FF48059ADF85C300BF075FA2C
:100C80001023204659468DF85E30ADF85C900BF08D
:100C90006CFA2B69322043F480432B612B6923F4D7
:100CA00080432B614F4B1A8802F4415242F4457243
:100CB00042EA0A021A80998B072221F40061090492
:100CC000090C99831A821A8892B242F040021A8063
:100CD0009F23C4F810908DF83C3000238DF83D30F0
:100CE0008DF83E308DF83F3010F077F9DDF80CC00C
:100CF000C4F81490624658460FA910F02FFDC4F8AE
:100D000010909DF85E309DF85D201B0243EA02437F
:100D10009DF85F201343344A934214D0322010F0E0
:100D20005CF9C4F81490F52010F04EFDFF2010F08F
:100D30004BFD7028C4F8109005D13B78022B04BFFE
:100D40002A4B83F800A03B78032B0CBF1F20022006
:100D500008F00FF83B78032B03D001200BF056FC72
:100D600007E0022008F082F80028F6D04388002B24
:100D7000F3D0D8F800404FF0100904F40043039377
:100D800004F4006305931A4B002118464A46069363
:100D900097F800A016F079F84FF6FF72069BADF8B1
:100DA0003C2002224FF0000B14EA02018DF83E2095
:100DB0008DF83FB01C461FD022A921F84C9D0D484C
:100DC0000CF030F8042323700722012384F801B0CB
:100DD000A370E2709B4610E0F50E0108FC94010838
:100DE000000C01400038004015202000B3330020E3
:100DF00020290020000801408B46039B8BB122A9CB
:100E0000022221F84C2DA0480CF00CF801220BEB2B
:100E10000201072384F805B02271A271E3715FFA21
:100E200081FBBAF1010F12D9202222A921F84C2D01
:100E300095480BF0F7FF052201232272A3720BF1F4
:100E40000102072384F809B0E3725FFA82FB059B75
:100E500093B1022222A921F84C2D8C480BF0E2FF1D
:100E6000092201232273A3730BF10102072384F8E3
:100E70000DB0E3735FFA82FB6A68854842F4404232
:100E80006A606A69DFF8089242F001026A61AA6941
:100E900042F40072AA610CF07FF87E4A0025179296
:100EA0007D4ABBF1010F189294BF2A4680221C9202
:100EB0004FF480721D924FF480621E9220224846A9
:100EC0001F9217A94FF4005220921995CDF868B0DF
:100ED0001B9521950CF042F8D9F800206F4942F09B
:100EE0000102C9F800204A68BBF1010F22F4702208
:100EF00094BF0020012022F4807242EA00224A605E
:100F00008868674A0BF1FF33024042F4602242F0E6
:100F100002028A60CA6ADBB222F4700242EA035318
:100F2000CB62012362199178002963D0605D591C5E
:100F30000928C9B2D278DFF864C112D9A0F10A0E2B
:100F4000DCF80CA00EEB4E0E4FF0070909FA0EF973
:100F50002AEA090902FA0EF249EA0202CCF80C2048
:100F60000FE0DCF8109000EB400A4FF0070E0EFA8D
:100F70000AFE29EA0E0E02FA0AF24EEA0202CCF842
:100F80001020062BDFF814E110D8013BDEF83420E6
:100F900003EB83034FF01F0C0CFA03FC22EA0C0254
:100FA00000FA03F31343CEF8343022E00C2B10D8B0
:100FB000073BDEF8302003EB83034FF01F0C0CFAE5
:100FC00003FC22EA0C0200FA03F31343CEF830309C
:100FD0000FE0A3F10D02DEF82C9002EB82021F233A
:100FE000934029EA030C00FA02F34CEA0303CEF81B
:100FF0002C300B460435102D94D1284B9A6842F4BE
:1010000080729A609A6842F001029A609A6842F08F
:1010100008029A609968214A090743D5FAE7013A1C
:10102000092A3FF60FAAD8F82C0004935946C7F8AE
:1010300014A0CBF8000003980BF097F8039B3C201A
:101040001A46082313610FF0C8FF049BC7F810A0CD
:101050001F4695F88F319F42BFF6EEA9039BDFF83C
:101060002CA04FF00808CAF810807820C3F814802C
:101070000FF0A8FF039BCAF814807820C3F81080F3
:101080000FF0A0FF0137E4E700080140000C014029
:10109000080002404C240140302900200024014077
:1010A000FDF7F1FF936843F0040393607F4B9A6868
:1010B00012F0040AFAD17E4D9A68B5F8580142F44C
:1010C000A0029A60002841F04D82B5F95A31002BF8
:1010D00041F04882B5F95C31002B41F04382D8F8E9
:1010E00000309B031FD5C8200FF077FFAE200BF018
:1010F000F8F908B10BF0FAF96E4C86F87501C820C2
:101100000FF06BFF6C4B00210C222046C6F87831A3
:1011100015F0BBFE0223E3700EF04BFF0FF036FF1D
:10112000664B0344A36095F8673100210393644B39
:101130000C221B686348B3F85630B5F860810593FC
:1011400095F85F4195F8685115F09FFE0021102237
:101150005D4815F09AFE5D4A002313705C4B3978A8
:10116000914603F11802012988BF1346C6F87C3165
:1011700004F0DAFD834680B3534B564AB8F5807FBE
:101180001A60554A5A60554ADA60554B01D100221F
:101190001CE0B8F1BB0F01D9012217E0B8F1610FD3
:1011A00001D9022212E0B8F1290F01D903220DE082
:1011B000B8F1130F01D9042208E0B8F1090F01D9E1
:1011C000052203E0B8F1000FE1D006221A700123D6
:1011D00089F80030022300F044BE19200FF0FDFE14
:1011E000682015215A4604F003FC70B3364A3D4985
:1011F000B8F1620F11603C4951603C499160374938
:10120000D160374A12D006D8B8F10A0F15D0B8F11C
:10121000140F10D00DE0B8F1BC0F05D0B8F5807FE9
:1012200007D182F801B00AE0012300E002235370E5
:1012300005E00323FBE70423F9E70523F7E7012390
:1012400089F80030042300F00CBE3A78032A53D109
:10125000069204F023FD00284ED01B4B2449B8F120
:10126000BB0F19602349069A59601C49D9601C4B71
:1012700001D9012210E0B8F1610F01D902220BE07F
:10128000B8F1290F08D8B8F1130F01D9042203E0EF
:10129000B8F1090F07D905229A70012389F80030A7
:1012A000072300F0DEBD0622F6E700BF0024014060
:1012B000A8100020F82900202E120020404B4C00DE
:1012C000F80F0020B42C002094310020C406002028
:1012D0006C940108C55A00088957000890C1793DEF
:1012E00000000020315B0008415800080D5800083C
:1012F000D15400083554000801200FF0E1FEAE4A39
:101300000A25137843F002031370AC4B10225A6184
:1013100008221A61A94C1920E368013D83F01003EB
:10132000E360E36883F00803E3600FF056FE0120FA
:101330000FF072FE19200FF050FE00200FF06CFE2F
:1013400015F0FF05E6D1082310259D4F2361256187
:101350003B681E0707D59B4B65611B6898479A4BF6
:10136000012225611A70994B994C1B68187B12F069
:1013700053F8984912F0A4F806F0B0FC054620880E
:1013800012F04AF8294612F09BF815F08BFF924BA9
:101390001880208812F040F80146904812F044F975
:1013A0008F4912F041F98F4B8A4918608E4B8F4C50
:1013B000D86812F085F88E4912F082F88D4BFF2123
:1013C00018601B22204615F060FD20460022227086
:1013D0003A68894B012112F0020F18BF6170197031
:1013E0001FBF032119700221A170550741BF197851
:1013F0004C1C1C70032448BF445412F00A0F0CD03C
:101400001A7804218154511CC9B205244454D11CBA
:1014100002321970D2B206218154784D29688C06A7
:1014200041BF1A78541C1C70072448BF84540A0614
:1014300008D51A7809248454941C01321C70D2B245
:101440000A2484546E4E7479082C01D00E2C08D1D5
:101450001A7802F1010E83F800E04FF00B0E00F84D
:1014600002E01A7811F4803F4FF00C0C00F802C033
:1014700002F1010E1CBFDFF880C102325FFA8EFE5E
:1014800083F800E01FBF8CF80020584A4FF00E0C84
:1014900002F80EC04A0748BF1A784FF0120C41BF3D
:1014A00002F1010E83F800E04FF0100E00F802E0A8
:1014B0001A7811F4806F02F1010E5FFA8EFE83F844
:1014C00000E000F802C00ED096F81CC2BCF1000F7C
:1014D00009D0DFF824C102328CF80020434A4FF0D3
:1014E000130C02F80EC01A7811F4007F4FF0140CA0
:1014F00000F802C002F1010E1CBFDFF8FCC002328E
:101500005FFA8EFE83F800E01FBF8CF80020374A98
:101510004FF0150C02F80EC0182C13D11A784FF0AA
:10152000160E00F802E002F1010E5FFA8EFE4FF097
:10153000170C00F80EC002F1030E0232D2B283F88B
:1015400000E084540C0341BF1A78541C1C70192409
:1015500048BF8454CA0541BF1A78511C19701A2318
:1015600048BF835400219822264815F08EFC0BF0CA
:10157000F0F9254A254BB6F84E111A60244BB6F8FF
:1015800094011980234900230B808B7022490A6043
:10159000224A81B21370224A22F813100133122B0F
:1015A000F9D12B68DC0458BFB6F89A111B07D1801B
:1015B00040F1FD8036E000BF88330020000C014080
:1015C0009C180020340600204C0600203007002024
:1015D0002800002035FA8E3C4C0700200AE81C4108
:1015E00000401C468006002094310020C10F0020DE
:1015F000BD3786352C070020C00F0020682E002044
:10160000A8100020102800202E120020640E0020B8
:10161000680E00205C33002050330020E70D0020CE
:10162000A42E002096F88E31062B00F2BA80DFE857
:1016300003F004070E395474740045F2F05201E0CF
:1016400042F6F822834B1A800BF00EFAA8E042F61D
:10165000F822804B1A8011F0DFFE7F4911F030FF35
:101660007E4911F023FE12F017F900237C4A42F85C
:1016700023000133122BF9D17A4A7B4940201160B3
:101680007A4A137007F0CCFC002800F08A8001230E
:101690004FF0070990F9000040218DE80802744AD4
:1016A000744B78E042F6F8226A4B40201A80724A66
:1016B0006C4B1A606D4B10221A7007F0B1FC0028B9
:1016C0006FD001234FF0000890F9000040218DE811
:1016D00008016A4A4FF4E1335DE042F6F8225D4BBF
:1016E00040201A80664A5F4B1A60604B08221A70CD
:1016F00007F096FC002854D001234FF0000C90F91D
:10170000000040218DE808105E4A4FF4E13307F0F5
:101710005DFB5D4BC3F8D8013FE042F6F8214D4A2E
:10172000062B118051494FF00C02DFF894C1DFF80D
:1017300094E1564C56480A700FD0002323708CF861
:1017400000308EF800301B230370524B4FF4E1340D
:101750001A70514B05221A700CE0002121708CF890
:1017600000108EF80010212101704A494B4C0A707C
:10177000494A13704A4A3B4B40201A6007F050FC1C
:1017800078B101234FF0000E90F900008DE8084079
:101790002346444A402107F019FB003018BF0120BE
:1017A00028B9082006F08CFB3F4A2E4B1A602B68A4
:1017B0002E4A13F4804F1FBF122111703B48294954
:1017C00018BF086042F20101194099B144F6206047
:1017D00020490880980441BF0821117034482149EC
:1017E00048BF0860D90741BF0C21117031481D491D
:1017F00048BF086011781C06A1F10401517040F146
:101800009E802148DFF8C0904FF000082A4CC0F8B5
:10181000DC914146152200F5F070DFF8B0B084F895
:101820000180C4F80480C4F8088015F02EFBA9F1EB
:1018300005034046CBF800300AF033F81F4B022076
:101840001B68E36007F0ECFB002841D1802006F024
:1018500037FB6CE07C070020CDCCCC3F0000B044CF
:101860003C32002038000020152D0108AC28002053
:10187000BD2E0108A0860100012D0108112E0108CE
:10188000ED2C0108C52D0108D0000020E82700201C
:101890000B2800204B3300200C28002090D00300A0
:1018A0002DC8000841C80008752D0108452D010804
:1018B000652D0108552D01089C0600208C2E002066
:1018C0004C330020E927002098120020BC0600209D
:1018D00090F805E06378C6490C2202FB03125278A7
:1018E000724504D00133DBB2042BF4D900236370BA
:1018F000DBF8003062781B7890F90000002B4FF085
:101900000C0303FB021314BF4FF0030E4FF0010E44
:1019100000225B78CDF800E00192022107F056FA30
:10192000B44B1860002891D0012009F0BAFFB24BE7
:101930001868B24B00F5C5721A600AF059F82B68A6
:10194000980553D5AE4AAF4C049B4FF01008236066
:101950009369AD4843F001039361049B0EA91B8872
:101960008DF83A80ADF8383002238DF83B300AF01C
:10197000FCFB2368A4485B880EA9ADF8383004232B
:101980008DF83A300AF0F1FB23680120197A0AF049
:10199000D7FB23689D4A5B684FF00009536117A885
:1019A0008DF861804FF0010817938DF860908DF8E5
:1019B00062800BF096FA23680FA85B7A8DF83E9050
:1019C0008DF83C3003238DF83D308DF83F800FF0CB
:1019D000A7FE8F4B8F4A1B683C3B13603B684FF060
:1019E000FF3243F010033B608B4B1A608B4B8C4AE9
:1019F0008C4C13608C4A803313602B680027D9030A
:101A0000277040F1B5800DF0DFFA40F22A3CDFF894
:101A100050B2DFF8EC914FF0010862465846394663
:101A2000CDF80CC084F8008015F02FFAD9F81830E2
:101A30007E4843F00403C9F818304023ADF838302D
:101A400018238DF83B300EA903238DF83A300BF0A4
:101A5000E9F9D9F81C30764943F00203C9F81C3083
:101A6000744B754C1B68A9F69479B3FBF1F321888C
:101A7000013B21F45C710904090C21809BB21D21FA
:101A8000A1852385A4F81480238C23F001031B0473
:101A90001B0C2384238CA088218B23F0020321F0CC
:101AA000730109041B04090C1B0C41F0600180B296
:101AB00043EA0803A0802183A7862384238B23F095
:101AC00008031B041B0C43F008032383B4F84430C1
:101AD0006FEA43436FEA53439BB2A4F84430D9F80A
:101AE000A83F43EA0803C9F8A83F48460BF054FA58
:101AF000524BDDF80CC0179380231C934FF4807376
:101B0000CDF860B01D934FF0100B4FF400534846D2
:101B100017A920931B971E971F972197CDF864B0A4
:101B2000CDF868C00BF01AFAA3890FA89BB243F452
:101B30000073A381D9F8003043F00203C9F80030E4
:101B40008DF83CB08DF83D808DF83E708DF83F806B
:101B50000FF0E6FD3A4B1A683A4B43F82A200AF197
:101B6000010ABAF1200FF5D10AF00CFA0AF00AFACC
:101B70002B685A0540F19380334C344BD4F82085C0
:101B80000420C3F8008007F04BFA0421C4F82405B0
:101B900007F022FA2E4B84F828050820C3F80080AD
:101BA00007F03EFA2B4B0821186007F015FA2A4F70
:101BB00084F82905002138462C2215F066F98E2379
:101BC0007B704FF07C0AE0234FF07D09FB7087F8B3
:101BD00000A087F82B90214F2C220021384615F0C9
:101BE00054F98A237B701020A023FB703AE000BFD9
:101BF00078950108F4290020F80F0020BC0E002081
:101C00000010024098060020000C01400004014032
:101C10008C2E00209406002018100020D4120020E2
:101C200080190020390D0020382A002000080140CA
:101C300000366E01540000200004004034040040CF
:101C4000049501083A0D0020D000002090180020D3
:101C5000E818002034190020B8180020ED180020E2
:101C6000C502002087F800A087F82B90C4F82C85C7
:101C700007F0D6F91021C4F8300507F0ADF984F863
:101C800034052020C4F8388507F0CAF92021C4F8AB
:101C90003C0507F0A1F984F8400510F09DF9AE4B22
:101CA000AE4C1B78022B67D1AD4A00271388322037
:101CB00023F040031B041B0C138013884FF480583F
:101CC00023F038031B041B0C138013889BB243F0D2
:101CD000400313809F238DF83C308DF83D708DF8C4
:101CE0003E708DF83F700FF078F98DF85D709D4F64
:101CF0000422C7F8148017A80FA90FF02FFDC7F80A
:101D000010809DF85E309DF85D201B0243EA024280
:101D10009DF85F301343944A934219D00AD8A2F534
:101D20001A42033A93420CD002F51A42023293420D
:101D300009D01CE08D4A934205D00132934207D06E
:101D400015E0202300E0802323804FF4807302E01D
:101D50004FF4807323806380A38822881B02A360D2
:101D60005343E360824B012283F8412504E00023C2
:101D700023806380A360E360E4682CB3E40AA04698
:101D80004FF00009A1450BDA09EB04077F100DF1B4
:101D90005C0AF802514610220AF054FB0F2807DCB7
:101DA00009F0D8FF724B4FEAC822C3F844250BE074
:101DB00000235AF82320013240F0D0830133042B52
:101DC000F7D1B8463C46DDE72B686A4A13F4002396
:101DD00018BF012313700FF0D9F8674B186073799F
:101DE000052B02BF654B4FF4C8721A80644B4FF449
:101DF0007A721A80634BC8221A80634A137843F0C0
:101E000008031370614A137823F00203137040F63D
:101E100002032A6813406BB15D495E4B19605E4B4B
:101E2000032119705D4B012119705D4900230B805E
:101E30005C490B80930341BF5B4B04221A71DA7833
:101E400044BF42F00102DA70B36801222B60574BA5
:101E50001A70574A137863F07F03137023B0BDE8FC
:101E6000F08F544A1370544A136843F0010313600F
:101E7000524B00221A709946082C30D8DFE804F043
:101E8000352F35101C20102B2B004FF0000853204D
:101E90004146012217AB8DF85C8003F0CBFB40BBC1
:101EA000474B397803F11802012988BF1346C6F859
:101EB0007C3103F039FF60BB3B78012B40F2AB80F3
:101EC00000211820012217AB8DF85C1003F0B2FB43
:101ED000002840F0BF803B78032B00F0CA80012C23
:101EE00040F2DC80354B00241C703B78012BD7D8A6
:101EF000CBE79DF85C30E52BD2D1324B324A86F8E5
:101F000080811A60314A5A60042389F80030022324
:101F1000BDE006210A4617AB682003F08BFB9DF855
:101F2000611001F001029DF85F1001F001014B000A
:101F300043EA82019DF85D2002F001030B4347D084
:101F40005BB2012B01D1002302E0022B4BD1012314
:101F500086F881314EE000BFB33300201800002026
:101F600000380040000C014018BA20001740EF0074
:101F7000D0000020B02F00206C070020740E00203D
:101F8000AA330020A8330020A0180020B43300207A
:101F90002012002088180020EC1800204C0000209F
:101FA000600F0020620F0020F8290020380D00206B
:101FB00088330020500000209C180020B0330020FF
:101FC0006C940108B42C0020355C000821590008ED
:101FD0000FAB68200C21012203F02CFB9DF83C3054
:101FE00013F00F0303D103200FF06AF802E0042B73
:101FF000ADD1A8E7584B594A1A60594A5A6096F829
:102000008121002A0CBF6F226E221A72012389F8E7
:10201000003003233BE000238DF85C301C200D21B1
:10202000012217AB03F006FB00283FF449AF9DF8EF
:102030005C302A2B02D01A2B7FF442AF464A494922
:1020400086F8823111604849022389F800305160D6
:1020500004231CE09DF85C30FB2B7FF43CAF3E4B2F
:10206000424A1A60424A5A60012389F80030052327
:102070000DE003F013FE00283FF431AF364B3D4A2C
:102080001A603D4A5A60012389F8003008233B4A10
:1020900053703B4A136843F0020313603B78012BF3
:1020A00005D10FF0B7FB374B4FF400525A61032DA7
:1020B00000F28381DFE815F004008C018000040049
:1020C0000A200EF08AFF7720A02101220FAB03F037
:1020D000B1FA002870D01E210122772003F088FC7D
:1020E0004FF42F600EF06EFF0024A4F16001002574
:1020F000022217AB7720C9B28DF85C508DF85D5085
:1021000003F098FA9DF85C209DF85D301E4843EA84
:10211000022300F5C272A3520234102CE5D12A46E4
:10212000B0F89241012304F00F0704F47F44A0F8B3
:10213000924122F001010144B1F88411002918BF35
:10214000002312F0010F03D0C9B24D4008211DE059
:1021500085EA1125FAE700BFB42C002009560008D3
:10216000CB570008815B000881580008115C00080B
:10217000DB580008FD52000873540008500000208E
:102180009C18002000100140D000002015F4004FE2
:1021900018BF85F4C05501394FEA4505F6D1013223
:1021A000102AC6D13C43C44AA0F8924123B9C5F3D2
:1021B00003339F4200F0B68196F89451BE4C002D37
:1021C00040F0FE80BD4E0FF025FB4FF480474FF0EE
:1021D00028090FA93046ADF83C708DF83E9009F003
:1021E000C4FF4FF400533361B5480EF0B3FF0E2126
:1021F000022009F0A5FF0823179717A801278DF8DB
:1022000061308DF860508DF862700AF06AFE8DF8CA
:1022100038900EA84FF003098DF839908DF83A5098
:102220008DF83B700FF07CFA14200EF0D6FED02112
:1022300077203A460FAB03F0FDF93146002800F055
:10224000A0809DF83C30A4F8B891552B84F8AF31AC
:1022500040F09780D1213A460FAB772003F0EAF99E
:102260009DF83C30772003F00F021B0984F8B02161
:1022700084F8B131162217ABAA2103F0DBF99DF8DF
:102280005C209DF85D3043EA0223A4F898319DF864
:102290005E209DF85F3043EA0223A4F89A319DF84E
:1022A00060209DF8613043EA0223A4F89C319DF838
:1022B00062209DF8633043EA0223A4F89E319DF822
:1022C00064209DF8653043EA0223A4F8A0319DF80C
:1022D00066209DF8673043EA0223A4F8A2319DF8F6
:1022E00068209DF8693043EA0223A4F8A4319DF8E0
:1022F0006A209DF86B3043EA0223A4F8A6319DF8CA
:102300006C209DF86D3043EA0223A4F8A8319DF8B3
:102310006E209DF86F3043EA0223A4F8AA319DF89D
:1023200070209DF8713043EA0223A4F8AC3141F2E9
:102330007073A4F8BC3146F67813A4F8BE31614B33
:10234000C4F8C031604BC4F8C431604BC4F8C83124
:102350005F4BC4F8CC315F4BC4F8D03194F8943162
:1023600043B903F0A5FB42F6E0600EF02BFEB56822
:10237000C5F38035584B0122DD704F4B83F8942113
:102380001EE0564A136823F480431360544B4C4AB2
:102390001868904207D05868904206D098689042DA
:1023A00007D1022202E0002200E00122002043F8CF
:1023B00022004FF400534B610AE0012D01D107E0E8
:1023C0000225484B484A9D70136843F0040313608C
:1023D000454C23689F0702D5444B1B689847444BE4
:1023E0001B689847434B039D1F78434B03F118022A
:1023F000012F94BF1F461746404A00231370904692
:1024000015B1022D40F0A5802B4A002622ABC2F860
:10241000D47103F82C6D1E200A21012203F00AF961
:10242000A0B19DF85C30482B40F0BC80344B354A5D
:102430001A60354A5A60032388F80030294B02227B
:10244000DA70236843F00803236001E00646A9E040
:102450002E4B93F854210AB12D490A7093F8552157
:102460000AB12C490A7093F856310BB188F8003044
:102470002368294D13F0080F1AD0BDF914B0642653
:102480009BFBF6F4204610F0C7FF074606FB14B08E
:1024900000B210F0C1FF214911F012F80146384690
:1024A00010F006FF1E4911F00BF82860FEF727BF59
:1024B00000232B60FEF723BFD00000200010014056
:1024C000C5530008B15A0008515700088D5A00083A
:1024D00001570008215200080000002000040140BC
:1024E000DC2C0020500000209C180020B42C002080
:1024F00094310020B33300209C940108B1330020B4
:1025000034060020CFC1000871BE0008A8100020CA
:10251000C4060020B0330020542E00208988883C57
:102520000000204142F21073A2F8BC31A2F8BE3183
:10253000204B0325C2F8C0311F4BC2F8C4311F4BDA
:10254000C2F8C8311E4BC2F8CC311E4BC2F8D03194
:1025500037E7012D7FF67CAF1D464DE707F10109F6
:1025600027462FE4184B00221A7000B210F054FFD7
:10257000164910F0A5FF1790B5F95A0110F04CFF5D
:10258000124910F09DFF1890B5F95C0110F044FF5E
:102590000E4910F095FF0E49199017A805F0A8FBF9
:1025A000FEF79DBD012D7FF653AF002588F8006032
:1025B0002AE700BF855A0008F15600087D5A000836
:1025C000E1560008655000084000002035FA8E3CB6
:1025D000FC28002093492DE9F04F0A68924C02F53F
:1025E0009C4320332360914B89B01E788946DFF8E5
:1025F0006882C6B18E4909688A4240F2EA80013E8B
:102600001E70E6E0D8F80030072D98BF595D894B61
:1026100088BF29461B6888489847032D0AD904EBD0
:102620004505A8800136844BF5B21A78AA421A46AD
:10263000E8D820E0D8F8002005F10E0302EB830370
:102640009988DA880028EAD04FF47A73401A584300
:10265000531A90FBF3F040F6C90300F57A709842E4
:1026600005DC40F2EE239842B8BF184601E040F680
:10267000CA0080B2D3E742F20107704B1B681F40CB
:10268000B7FA87F794F828307F0923B92FB1664B42
:1026900093F8293002E0012300E03B4692F800A0C5
:1026A00094F82B200326B2FBF6F60F2106EB460624
:1026B00084F82A10961BD8F80010DFF8A0B1F6B203
:1026C000002555454DDA1BB15D4830F8150000E096
:1026D0001846B1F814E0864503D8B1F816E08645EF
:1026E00015D2E8B203920291019310F047FD032D39
:1026F000DFBF4FF0010E94F82AC00EFA05FE2CEA57
:102700000E0E019B0299039AD8BF84F82AE007BBFA
:1027100094F874E02BF81600BEF1000F06D1022ADF
:1027200017D941484FF0010E80F874E0BBF800E083
:10273000BBF802007044BBF804E07044DFF820E10D
:1027400080B22EF8150000B24FF0030E90FBFEF0A1
:1027500080B2DFF8FCE00BF1060B2EF81500013516
:10276000AFE794F82A203748A2F10F077A427A415E
:1027700084F88E20344B6AB1344A1268560109D469
:102780000268D9689A60521AC82A1DD9012283F8B2
:10279000212019E002689868DA605B68121A9A4290
:1027A00088BF294B4FF0000184F8281088BF83F8B8
:1027B00021100025554507DAE8B210F0DFFC244B64
:1027C00023F815000135F5E794F82B30013384F830
:1027D0002B301A4E3368DD0405D51C4B1B68D80717
:1027E00001D40FF0A7FED8F80020D9F80070907A35
:1027F000002837D01649137B013831F810001BB17F
:10280000C0F53B60083080B200B2A0F57A70B0F538
:102810007A7FA8BF4FF47A7020EAE07010F0FCFDD8
:102820000C4954E094330020BC0D002058330020A4
:102830005433002038000020AC280020682E0020EF
:10284000C00D00208C2E00205C330020BC0F002027
:10285000A42E002000007A4450330020E80D002010
:10286000320E0020336819043AD5D4F89030934DD5
:10287000FB1A002B34DB07F59C432033C5F890305E
:102880008F4BD27A59798F4B33F8113095F89410D9
:102890009BB293FBF2F3013101F00F0285F8942013
:1028A0002A4482F895300346874A825C01301344FB
:1028B00010289BB2F8D11BB293FBF0F000B2642851
:1028C000A8BF642020EAE07010F0A6FD7F4910F058
:1028D000ABFE7F4910F0F4FD10F0DEFF7D4B188059
:1028E00033687D4D13F4807F00F00F817B4BDFF860
:1028F000F0919F4205D999F8022012B9012289F876
:10290000022099F80220002A00F0FF80744A95F80E
:10291000008092F82170C8F380087A1E5742574110
:10292000704A002F9246116818BF4FF0000BC1F398
:102930008063019308BF4FF0030B99F82020052A0C
:1029400000F2DD80DFE802F0034E537988A5B8F18C
:10295000000F3AD0D4F8A800B4F8AC100EF0D4FAB6
:10296000012809D16049614A09681268C988642050
:1029700000FB0122C9F81020019B6BB15A4A126872
:1029800012794AB110F080F9032289F820204FF41F
:102990007A72C9F81C20D0E7002F40F0B080534A6B
:1029A000D9F8101010684E4A88420AD9029210F0E5
:1029B0006BF9029A032182F8201040F6B831D161F8
:1029C000BBE7012182F82010B7E7019B4FF480603C
:1029D00013B105F065FA01E005F051FA0022C9F8DB
:1029E00010208CE0002F49D110F04EF9A5E727B157
:1029F000052289F82020012000E03846B8F1000FB8
:102A00000CD0D4F8A8204FF0020BD189384A11809D
:102A100051809180344909684988D180334A1168CE
:102A2000D9F81420914202D8B8F1000F64D147F2CE
:102A30003052C9F81C20032221E02A7842F0020219
:102A40002A700FF077FD294AD9F81C1012680A4441
:102A5000C9F81820042212E0244A9FB11168D9F85D
:102A6000182091424BD9234A12781AB9DAF800207B
:102A7000D30744D42A7822F002022A70052289F86A
:102A800020205AE71268D9F81C100A44C9F8182007
:102A900035E01549154A09681268C988642000FBA9
:102AA00001224FF48060C9F81020002289F820200C
:102AB00089F8032005F0E3F93FE700BFBC0D0020D3
:102AC0002029002030290020510E00200000C8429B
:102AD00000C07F441C100020B4330020404B4C0049
:102AE0005C330020BC0F0020C83100208C2E002059
:102AF000A42E00201600002000287FF41EAFBBF19A
:102B0000000F02D058460EF0A1FA924F07F5C3709D
:102B1000B7F84E110EF0F8F90197834668B910F036
:102B2000A5F88D4B0022C3F800B0C3F804B0C3F879
:102B300008B08A4B1A605A609A602B785F0736D5C6
:102B40003368D80633D5864B1B78D9062FD4854BEE
:102B50001B789BB1019B93F8DE31BBF1000F15D1BF
:102B60007BB1814B1A68D4F8B0309B1A002B08DA7D
:102B70000FF0E0FC7D4B83F8B4B018E0BBF1000F20
:102B80000DD110200EF062FA01230EE03BB1764A1F
:102B90004FF47A71126801FB0323C4F8B03094F843
:102BA000B43023B10EF03EFA002384F8B430019B18
:102BB00093F8DCA193F8DD11B3F896E1B3F898C16E
:102BC000002318466A4F800837F9132001337245F5
:102BD000C4BF60F07F00C0B26245B8BF40F04000A3
:102BE000042BB946EED194F8B530604A834205D142
:102BF00092F8B630F92B04D8013300E0002382F8B4
:102C0000B630584B84F8B5001A785A4F9846E2B956
:102C10003B68DA0708D5BBF1000F16D12B78DB072C
:102C200013D50FF0D9FA10E02B7858070DD54F4B7C
:102C300093F828304BB1504BDB7833B911B10FF01A
:102C400079FC02E0BBF1000FF9D094F8B630474AA6
:102C5000142BDFF840B140F0AF8098F800301AF143
:102C6000000A18BF4FF0010A6BB392F8B5305F2B22
:102C700011D12B7803F0040303F0FF0113B10FF01F
:102C800059FC08E00B20039102920EF0DFF9029A42
:102C9000039982F8B610BAF1000F14D094F8B53049
:102CA0007D2B10D12B7803F0040303F0FF0213B146
:102CB0000FF040FC07E00B2002920EF0C7F92B4BFF
:102CC000029A83F8B6202B7803F0040303F0FF0187
:102CD000002B71D194F8B530244A572B15D1274BCE
:102CE0004FF47A721A803368190601D508F0D0FEC5
:102CF000234B1B685A0742BF224A0A21118013F056
:102D0000080359D1204A138056E03068400716D591
:102D10005A2B14D11D4B187820B119701C4B01226D
:102D20001A7049E092F8B73083F0010382F8B730A7
:102D30000BB10C2000E00D200EF088F93CE05D2B7B
:102D400000F01F855B2B00F01E855E2B24D1032035
:102D500000F01ABDA8100020502A0020F82A0020F8
:102D6000A0180020160000208C2E0020BC0D002092
:102D7000A42E0020BC0F00205C330020AA330020CA
:102D80009C180020A833002098100020EF29002074
:102D9000F0290020F80F0020562B01D105F060FB30
:102DA00098F80030002B00F0058594F8B5306F2BB3
:102DB00040F0FA840FF010FA3368580732D594F8CF
:102DC000B730A3B12B78590711D5019BB9F906206B
:102DD000B3F896319A420ADD3B6813F0010301BF54
:102DE000AC4A32211180AC4A08BF82F8B7303B6848
:102DF000DA030AD5A94B1A782AB9A94A127812B966
:102E0000A44A3221118001220BE0A54A13784BB16C
:102E10002B7803F0040303F0FF011BB9A14B1170E1
:102E200001221A70DBF8009000233B6009F17B0857
:102E300009F1CB0A98F8002098F8013018F8010C35
:102E40009A420BD2414606F053F938B118F8022CD9
:102E5000012303FA02F23B6813433B6008F10408C4
:102E6000D045E7D1904B1B7853B1904B904F1A68E7
:102E7000984612F0020FDFF8509240F03A8332E3A6
:102E800009F1CA0709F589783A787B7817F8010CB7
:102E90009A4225D2394606F02BF908B397F804E098
:102EA0000C21BB7801FB0E41824A013B03EB43033B
:102EB0001344D1F8C02097F803909A4276480FD077
:102EC000C1F8C030002390F8EC20C1F8C4300123D1
:102ED00003FA0EF322EA030381F8BC9080F8EC3089
:102EE00006374745D0D1744BDFF8E0A1D3F8008016
:102EF000724B4FF0000B1B68029394F82830039339
:102F0000DAF80030002B00F0E58293F80090B9F178
:102F1000000F00F0DF82DAF8042002998A1A002AF2
:102F20000CDB01F5FA72CAF8042094F8EC100122C7
:102F300002FA0BF221EA020284F8EC20039A002A3A
:102F400000F0C8821AF8042C59780432D2B2002951
:102F500040F081825A4931F912105A4AB2F894214C
:102F600002F1C800814201DD9F7814E0C83A914225
:102F700002DA99784F420EE094F8EC20012303FA2C
:102F80000BF322EA030384F8EC30029B03F5FA7397
:102F9000CAF804309EE294F8EC3043FA0BF3DB07F6
:102FA00000F19882002FCCBF022001200EF070F8B3
:102FB00009F1FF32384B132A00F28482DFE812F065
:102FC000140023003200440061008800ED0052012B
:102FD000B701EC011B028202440055008800ED009D
:102FE0005201BF002401890198F8001040460F44A7
:102FF000FA2FA8BFFA2727EAE77788F8007006F0CB
:103000005DF801201EE098F8011040460F44642F3F
:10301000A8BF642727EAE77788F8017006F04EF822
:1030200002200FE098F8031040460F44642FA8BF19
:10303000642727EAE77788F80370D3F8F01005F0E3
:10304000F5FF03203946D3E198F805100D203944E7
:103050006429A8BF642121EAE17188F805100DF008
:1030600081FFB9F10D0F00F02D8298F804100E20A9
:1030700039446429A8BF642121EAE17188F8041069
:10308000B6E198F806100520394481F3080188F864
:103090000610ADE1C8290020BC0D0020EE2900205B
:1030A000EF290020F0290020B6330020BC0F0020BB
:1030B0009C18002070990108201000208C2E002000
:1030C000A42E0020A8100020641900207C0E0020EF
:1030D000D3F8F4301A78022A22D13846049310F03B
:1030E0009BF9A94910F0A0FA049B596A059310F0C6
:1030F000DFF80021049010F081FB059B48B9049A89
:10310000A249104610F098FB049A059B10B19F4A03
:1031100000E000225A620F2011460DF00FFF0AE076
:1031200099780F203944C829A8BFC82121EAE17144
:1031300099700DF017FFB9F10F0F00F0C381944B98
:10314000D3F8F49099F80030022B1AD1384610F0D9
:1031500063F98D4910F068FAD9F8201010F0A8F83A
:103160000021074610F04AFB30B93846874910F075
:1031700063FB10B1854F00E00027C9F820701220D2
:1031800059E199F8011012203944C829A8BFC82173
:1031900021EAE17189F801102AE1D3F8F4301A78B4
:1031A000022A22D13846049310F036F9774910F0FC
:1031B0003BFA049B196B059310F07AF800210490F8
:1031C00010F01CFB059B48B9049A7049104610F09A
:1031D00033FB049A059B10B16C4A00E000221A638D
:1031E000102011460DF0AAFE0AE0197B1020394488
:1031F000C829A8BFC82121EAE17119730DF0B2FEF8
:10320000B9F1100F00F05E81614BD3F8F49099F89A
:103210000030022B1AD1384610F0FEF85B4910F04E
:1032200003FAD9F82C1010F043F80021074610F0EB
:10323000E5FA30B93846554910F0FEFA10B1534F4F
:1032400000E00027C9F82C701320F4E099F80B1067
:1032500013203944C829A8BFC82121EAE17189F89F
:103260000B10C5E0D3F8F4301A78022A22D1384680
:10327000049310F0D1F8474910F0D6F9049BD96BAC
:10328000059310F015F80021049010F0B7FA059B93
:1032900048B9049A3D49104610F0CEFA049A059BAD
:1032A00010B13A4A00E00022DA63112011460DF015
:1032B00045FE0AE0997D11203944C829A8BFC821DC
:1032C00021EAE17199750DF04DFEB9F1110F00F091
:1032D000F9802F4BD3F8F49099F80030022B1AD1D3
:1032E000384610F099F82B4910F09EF9D9F83810AB
:1032F0000FF0DEFF0021074610F080FA30B93846A3
:10330000224910F099FA10B1204F00E00027C9F8C7
:10331000387014208FE099F8151014203944C8290A
:10332000A8BFC82121EAE17189F8151060E0D3F83F
:10333000F49099F80030022B1AD1384610F06CF84E
:10334000114910F071F9D9F828100FF0B1FF0021E0
:10335000074610F053FA30B938460C4910F06CFAB1
:1033600010B10A4F00E00027C9F82870092062E078
:1033700099F8031009203944C829A8BFC82121EAB7
:10338000E17189F8031033E0000020410000C842D9
:10339000BC0D002000007A44D3F8F49099F8003076
:1033A000022B1AD1384610F037F8B44910F03CF926
:1033B000D9F834100FF07CFF0021074610F01EFAF8
:1033C00030B93846AD4910F037FA10B1AB4F00E0D4
:1033D0000027C9F834700A202DE099F80D100A2052
:1033E0003944C829A8BFC82121EAE17189F80D1024
:1033F0000DF0B8FD66E0D3F8F49099F80030022B98
:103400001DD1384610F008F89D4910F00DF9D9F893
:1034100040100FF04DFF0021074610F0EFF930B9D2
:103420003846964910F008FA10B1944F00E0002792
:10343000C9F840700B2039460DF080FD42E099F844
:1034400017100B203944C829A8BFC82121EAE1710F
:1034500089F81710CCE7012934D19878894B33F9D2
:103460001230B3F5617F05DB40F633029342A8BF0B
:10347000134601E04FF46173B9F10C0F22D14FF400
:10348000966292FBF0F0A3F5617393FBF0F37E4A32
:10349000DFB21378BB4215D0042F34BF3B46022362
:1034A0001370019A09FB0323784A03F2B673136081
:1034B00004F0DEFD484639460DF054FD781CC0B2DC
:1034C0000DF0E6FD94F8EC20012303FA0BF313430F
:1034D00084F8EC300BF1010BBBF1040F0AF10C0A7C
:1034E0007FF40EADC1E43368D80510D5684BDB78A6
:1034F0006BB13B6899070AD5B9F8003013F0010A9F
:103500000AD10FF0B3FB012004F0CAFC04E0012053
:1035100004F0B5FC012300E00023D8F80020520796
:103520000DD563B1012004F0AAFCB9F800309B0767
:1035300008D40FF09BFB022004F0B2FC02E0022052
:1035400004F09DFCB9F80030524A13F0030F4FF01D
:10355000100114BF516111613A6812F00A0F27D0AF
:10356000D8F80020D00609D559070AD4042004F061
:1035700097FC494B1B88A4F8F83002E0042004F0C3
:103580007EFCD8F800309A0607D5B9F800305B0603
:1035900006D4402004F084FC02E0402004F06FFCDC
:1035A000D8F80030580642BF3B4B1B88A4F8FA30CD
:1035B0003B68990609D4D8F800301A0540F1B0806C
:1035C0004FF4807004F06CFCAEE0344B1B789B072A
:1035D0006ED5334B1B78042B6AD9D8F8003013F41E
:1035E000007A0FD0B9F80030DF063AD4102004F08A
:1035F00057FC202004F043FC2A48011D08F0B2F9D2
:1036000002232AE0B9F8007007F01007BFB22FB10B
:10361000102004F034FC012784F8FCA0D8F8003016
:10362000580512D5D4F800311F495A89B1F9003034
:10363000002BB8BF5B42934207DAB1F90230002B8E
:10364000B8BF5B429342C0F20881B9F800309906D6
:1036500008D5202004F013FC002384F8FC30012757
:1036600000E0002794F804319BBB0E200DF0EEFC27
:103670000E4B012283F804212BE000BF0000C8425A
:1036800000007A44A42E0020942C0020201000205A
:103690005C330020000C014098100020A01800208E
:1036A000A618002028100020A0100020BC0D00202B
:1036B000B9F8003003F03003002B3FF47CAF10204A
:1036C00004F0DDFB202004F0DAFB002384F8FC305A
:1036D00002E0002F3FF46FAF002214466B4B002036
:1036E00023F814006A4B191D03F10A0721F814008E
:1036F0000021D15117447860B96023F8140003F118
:1037000032075A33D151D150174413447860B9600D
:10371000586099601432002C7FF44DAF0124DDE72E
:103720004FF4807004F0ABFB5A4B5A791C46082AC0
:1037300001D00E2A02D1402004F0A1FB33685A05C3
:1037400040F1A18094F81C321BB92B7813F0040FC0
:1037500003E0D8F8003013F4002F0BD04E4B0022BA
:103760001A703C2009F0C8F9002800F08C800DF098
:10377000BDF8F6E70EF030FC09B0BDE8F04F09F0F7
:10378000E8B8012000E002205FFA80F8019A08F111
:10379000FF3382F8B43704F0C5FB04F08DFC4046DB
:1037A0000DF076FCFFF708BBBAF1000F02D07E2BBC
:1037B0003FF400AB94F8B530972B06D1374B4FF45C
:1037C000C872A3F8B820FFF7F7BAA72B06D1344A7E
:1037D000137843F004031370FFF7EEBA0022BB2BFB
:1037E000079201D1022303E0B72B04D14FF6FE73F9
:1037F000ADF81E3009E0BE2B01D1022303E0BD2B42
:103800001AD14FF6FE73ADF81C30DBF80030BDF86E
:103810001C10B3F858200A44A3F85820BDF81E1015
:10382000B3F85A200A44A3F85A2004F019FE0023E2
:1038300084F8B630FFF7C0BA792B04D1194AD3788F
:1038400023F0010306E07A2B7FF4B6AA154AD37859
:1038500043F00103D370FFF7AFBAB9F800309B060D
:103860003FF500AF202004F01BFB0F4B0F481A68F8
:103870005B68011D4360026008F074F8074B012784
:1038800083F8FC70EEE609B0BDE8F08FAC330020A1
:10389000C20E0020A8100020B1280020BC0D00207E
:1038A000A0180020F8290020A818002030100020BF
:1038B000BA4B2DE9F04FB3F90610B94B91B01F6820
:1038C00001937A8991420EDBB1F5FA6FFC79BFBFA3
:1038D0008B1A6343A2F5FA6493FBF4F4ACBFC4F112
:1038E0006404643400E06424AE4BAF4A1868B2F854
:1038F00094A1054692F95E21049092B2059202933A
:10390000002240F2E630A54B4FEA420B33F9123069
:103910000393CAEB030303F2F316864203D8002B8A
:10392000B8BF5B4201E04FF4FA73022A049E4FF0E5
:1039300064002FD096F811E1BEF1000F04D073455A
:10394000CCBFCEEB0303002393FBF0FCDFF8A0E237
:103950006FF063093EF81C8009FB0C390CF1010C77
:103960003EF91CE00FFA88FCCCEB0E0E0EFB09FEB4
:103970009EFBF0FE8D4EC64426F80BE0BE1836794D
:1039800073438B4E93FBF6F364339BB2634393FB19
:10399000F0F02DE096F812E1BEF1000F04D073456F
:1039A000CCBFCEEB0303002393FBF0F0DFF82C82B7
:1039B0006FF0630C0CFB003938F910E0013038F976
:1039C0001000002BCEEB000000FB09F999FBFCF97D
:1039D0000598CEEB090909FB00F97448B8BF5B42B2
:1039E000A0F80490B8794343714893FBF0F0643039
:1039F0006B784FF0640E434393FBFEF36D4E022A47
:103A0000B354EB7A6C4E00FB03F393FBFEF3B35419
:103A10006B7D664E00FB03F090FBFEF0674B985405
:103A2000674B0FD183F802E0039B53450EDB5E4CDE
:103A3000B4F89621914215DBB1F5FA6FA8BF4FF4A7
:103A4000FA6110E09C54039B534504DA36F80B30BE
:103A50005B4226F80B300132032A05F101057FF4A1
:103A600050AFE4E71146891A4FF47A735943C2F50F
:103A7000FA62B1FBF2F1642791FBF7F2DFF874E12F
:103A80006FF063033EF8120003FB021101323EF9AE
:103A9000122003B2D21A514391FBF7F30344F3808F
:103AA000484B424D1B885F063BD5474A474B108821
:103AB0001B88181A00B20FF0AFFC45490FF000FD4B
:103AC000074604F00BF98046384604F094F80746A0
:103AD000B5F902000FF0A0FC8146B5F900000FF027
:103AE0009BFC414682460FF0EBFC39468346484634
:103AF0000FF0E6FC014658460FF0D8FB0FF0A6FE8B
:103B00004146288048460FF0DBFC39468046504647
:103B10000FF0D6FC014640460FF0CAFB0FF096FEB0
:103B200068802C4F3B68980740F19F8045F2072141
:103B3000294B2A4D1A686B69D31A8B4240F3958042
:103B40006A6109F0C1FB264BDFF8AC901A78984601
:103B5000032AB9F8003051D10A2B59D90023282063
:103B600088F800300DF039FA09F0AEFB1D4B1888CB
:103B700009F094FB1C4B1A68D37890FBF3F00130EA
:103B800008281A4BA8BF08201870537980B2434305
:103B90002B831379584368833AE000BFA42E00209A
:103BA00020100020F80F0020A8100020A0100020F6
:103BB0000CFEFFFFC02A0020560F0020D82A00204C
:103BC000402A002064190020B60E00209810002022
:103BD00035FA8E3C682E002094330020480F0020D8
:103BE000EC18002038290020881800204C00002004
:103BF0009E190020861900208C1800200A2B07D857
:103C000003239A4A88F80030002313702B836B83B8
:103C100098F80030964A012B0CD002D3022B1BD00F
:103C200023E02A8BB9F800309A421EDD012388F880
:103C300000300FE0B9F800106B8B8B4202DD0223DD
:103C400013700FE08B4B1B8B0133994202DD002375
:103C500013700AE0082006E06B8BB9F800200133EE
:103C60009A42E3DC07200DF0F1F93D68290573D590
:103C7000814B804F1B68FA69C2EB030845F20722AB
:103C8000904569DDFB617D4BB6F906B0D3F8009035
:103C9000B4F84E1199F80A30ABF57A7B012B784EC7
:103CA00003D042D3022B20D041E0764B396A5A7BB5
:103CB000754B082033F8122091FBF0F392B2C91A29
:103CC0008B183B6293FBF0F3BA8440F6E4429BB25C
:103CD0005343B9F80820C2EB13334FF47A725343BD
:103CE000B9F9062093FBF2F320E0684BB9F808A07D
:103CF0001B78C6F800A05A0719D565480DF004F9DD
:103D000020B915F0100F18BF4FF0000B0BFB0BF391
:103D1000322293FBF2F3B9F906205B445A434FF485
:103D20007A7392FBF3F3534400E00023336033686B
:103D3000D7E90A0103FB08F84FF47A7398FBF3F80C
:103D400010EB080041EBE8710023C7E90A01514A72
:103D50000FF0C2FD504B1860504E3368DB0427D57E
:103D60002F0622D54E4B1B789D071ED54D4B18783C
:103D700004281AD900224C4B0521D718951C4FF066
:103D80000A0E122AD154E9B287F801E004D0B0EB50
:103D9000510F2A46EFD800E014215A18322002F8B9
:103DA000010CFF225A540F2000E00A200DF04EF9BA
:103DB0003E4D2A68002A51D03D4B3E4F1868396865
:103DC000984681424AD83C4BDFF8F89019785268FF
:103DD000E1B94FF0010A83F800A0B9F80030D35CD4
:103DE00023B350460DF018F9344B83F800A00FF0C0
:103DF0001BFAB9F80030CBB92B681B78053B53454B
:103E000014D80DF0C3F82E4B18600FE04FF0000AE5
:103E100083F800A0B9F80030D35C3BB150460DF0F8
:103E2000FBF8264B83F800A00FF0FEF92B68B9F8D9
:103E300000205B6823499B5CFE2B02D100230B8092
:103E40000CE0FF2B02D10DF0EDF807E0D8F80000F0
:103E50000A2505FB030301323B600A800B4D2B78DA
:103E6000580733D5184B08225A616DE04C000020EA
:103E7000EC180020480F0020943300208818002000
:103E8000941800202029002030290020B43300207D
:103E90002E120020407E050098180020BC0F002044
:103EA000A0180020A6180020C02C0020F42C002010
:103EB0008C2E0020EC2C0020E82C002080330020E9
:103EC00064310020F02C0020000C01403268D10742
:103ED0005CBF43F001032B70994B1B781F075EBF3B
:103EE0002B7823F001032B70D60248BF2B78954A1C
:103EF00044BF23F001032B70934B1B6813F0040F96
:103F000002D09249098851B99149098809B19807A5
:103F100005D4904B1B88003318BF012333B1022313
:103F200013702B7823F001032B7004E02978C90764
:103F300058BF022313700DF029F8874B1B68C01A75
:103F4000002801DB0FF070F90EF046F8834B1E7865
:103F50009846002E00F0AD80814F3B68002B00F0AA
:103F6000AE8638680DF014F9002800F0A8867C4B66
:103F70007C4C18680DF009F9092801D03F2852D16E
:103F80004FF0000A55462668DFF8FC9136B17648B6
:103F9000D9F80010324612F0C5FF10B9CA4605B96B
:103FA0004D46724B09F110099945EFD3EDB1D5F8A3
:103FB00000C0DAF8009023681CF803E019F8030049
:103FC000704512D15A1C684958B92D2B09D8DFF811
:103FD00094E1CEF800204FF0200E01F803E0885461
:103FE00003E001F803E02260E5E723680BB15545E3
:103FF00010D05F480CF06AFD554507D855F8100BF6
:104000000CF064FD09200CF059FDF5E759480CF05F
:104010005DFD002623689E42A3D2534B985D0CF0B1
:104020004DFD0136F6E72368002B40F02D8604286D
:1040300040F06B864C4809F035FB00F040BED9F8E3
:104040000000DFF840A10DF0A3F840B3DAF800005B
:104050000DF09BF8DBF80030024693F84810002979
:1040600035D1242840F09280012283F84820DBF8E3
:104070000030DFF80CA193F84820062ADFD193F82E
:10408000490001F067FE8146002800F0AA803B68E5
:1040900098790CF068FC3B68002283F84820364B86
:1040A00093F83530002B40F0BE854C36982E00F04A
:1040B0000686324BF21892F84A100129F5D1304F9A
:1040C000F3583A602F4ABB4613609146B7E701297F
:1040D00004D14D2814BF00220222C6E7022904D1D0
:1040E0003C2814BF00220322BFE703290CD140283B
:1040F0004FF0000102D983F84810B8E758711971E0
:10410000D97198710422B0E7042906D1997983F80E
:1041100049004A409A710522A7E70529A7D1587995
:1041200019798842987906D950409871481C1871BD
:104130000B441A729BE790420CBF0622002294E7C0
:10414000A0180020803300209C180020A8330020F5
:10415000740E0020AA33002084330020B6330020E0
:10416000B02C0020342A0020042A002078A5010861
:1041700087BB01088CBB0108480F002010280020D5
:104180004419002048190020A8A301082B78D14920
:1041900058073FF56CAF232ADAF8003014D101201C
:1041A00088F80000CC4804910360CC480392036374
:1041B000CB480CF08BFCCB480CF088FC0499039A9C
:1041C0000B7843F002030B70C74B1B681B789342BC
:1041D00001BFC64AC64B1A60C64A04BFC64BDA6066
:1041E00045E7DAF8002092F849304A2B00F01081B8
:1041F0005CD8332B00F0598421D8292B00F0F383AD
:1042000009D8252B00F0CA83272B00F0CE83232B5F
:1042100040F07785B6E12D2B00F0F68307D82B2BE5
:1042200040F06F850CF082FB607100F0F7BC2F2B23
:1042300000F0A784312B00F0B98400F062BD3E2B62
:1042400000F0DC801DD8372B00F0638404D8352BB8
:1042500000F0D18100F055BD392B00F0B3833C2B29
:1042600040F04F85DFF8A092D9F800A00CF05EFB7B
:104270008AF80000D9F8003018780DF02DFA00F017
:10428000CDBC432B00F0228406D8412B40F0398569
:104290004FF0000900F00EBC442B00F0BB84482B0B
:1042A00040F02F8507F094FD00F0B8BCCF2B00F054
:1042B0001D822AD8C92B00F0F78215D84E2B00F0AA
:1042C000C683C82B59D04C2B40F01B850CF02EFB1D
:1042D00084F8D4010CF02AFB84F8D5010CF030FBF3
:1042E000A4F8D60100F09ABCCC2B00F0AC8104D825
:1042F000CA2B00F0928000F004BDCD2B00F0BE82EE
:10430000CE2B00F0C48200F0FCBCD42B00F0328233
:104310000FD8D12B00F00383C0F0A582D22B19D087
:10432000D32B40F0EE840CF00BFB744B188000F0A4
:1043300075BCEF2B52D005D8D62B40F0E2844FF05D
:1043400000090CE2F22B00F06382FA2B00F0A88245
:1043500000F0D7BC2B7803F0040303F0FF09002B17
:1043600040F05C840CF0E2FA022884F8B40740F2D2
:104370008082634B83F8B4977BE292F805904FEA12
:104380005909B9F1120F03D908F0B2FB00F046BC8D
:104390004FF0000ACA4507D20CF0D2FA07AB23F857
:1043A0001A000AF1010AF5E74A4600234B4507DAED
:1043B00007A931F81300534921F813000133F5E739
:1043C000122A05D04F4B002123F812100132F7E7D3
:1043D000424B012283F8342000F020BCDFF8289102
:1043E000D9F800A00CF0ACFAAAF85A00D9F800905D
:1043F0000CF0A6FAA9F8580000F010BC0CF096FAE0
:1044000084F8DE010CF092FA84F8DD0100F006BCBD
:104410000CF096FAA08100F001BC3B4B1A6899465B
:104420001278022A40F091804FF00009DFF8D8A0FE
:1044300009F1080BDAF8003003930CF077FA0EF06C
:10444000E7FF32490FF0F0F8039B43F82B00DAF84E
:1044500000B00CF06BFA09F10A030BEB830B0EF0C2
:10446000D7FF2B490FF0E0F8DAF80030CBF8040062
:1044700003930CF05BFA0EF0CBFF26490FF0D4F853
:1044800009F10E0B039B09F10109B9F1030F43F880
:104490002B00CBD1B9F1070FDAF800B03CD10CF00A
:1044A00045FA0EF0B5FF19490FF0BEF8CBF84400FD
:1044B000DAF800B00CF03AFA0EF0AAFF13490FF048
:1044C000B3F8CBF84800DAF800B00CF02FFA8BF80C
:1044D0004C0034E0B4330020B02C0020480F002002
:1044E000BCBB01088CBB0108B4280020EFBEADDEC8
:1044F000F04F00200400FA0500ED00E0B40E0020AB
:10450000A810002084320020F80F00200000204175
:104510000000C84200007A440CF008FACB448BF843
:104520000100DAF800B00CF001FACB448BF80B0074
:10453000DAF800B00CF0FAF9CB448BF8150009F169
:104540000109B9F10A0FA5D168E34FF0000AD9F8C3
:1045500000B00CF0EBF9D3448BF80100D9F800B0AF
:104560000CF0E4F9D3448BF80B00D9F800B00CF050
:10457000DDF9D3440AF1010ABAF10A0F8BF81500EC
:10458000E5D14BE30CF0D2F9132883463FF6FCAE9D
:10459000DFF838A3DAF800900CF0C8F90023C64918
:1045A0000C2202FB0312117A814220D1137809EB0D
:1045B0008B0989F879300CF0B9F989F87A000CF098
:1045C000B5F989F87B000CF0B1F9BC4ABC4B89F80D
:1045D0007C001A60DAF80000BA4B002118607930CC
:1045E00004F0AAFDB84B80F00100187016E3013307
:1045F0001C2BD4D1C8E60CF099F90B2882463FF663
:10460000C3AEB24BD3F800900CF090F903283FF6FC
:10461000BBAE062303FB0A9989F8CE000CF086F99D
:1046200089F8C9000CF082F989F8CA000CF07EF90B
:1046300089F8CB000CF07AF989F8CC000CF076F907
:1046400089F8CD00EAE25379092B7FF69DAE019BF4
:10465000D3F800900CF06AF9019B89F80000D3F8B8
:1046600000900CF063F989F801000CF05FF9019BF0
:1046700064281B68A8BF642018710CF057F9019BCF
:1046800064281B68A8BF642058710CF04FF9019B87
:10469000FF281B68A8BFFF2098710CF047F9019B09
:1046A0006428D3F8009028BF642089F807000CF034
:1046B0003DF9019B89F80200D3F800900CF036F91F
:1046C000019B89F80300D3F800900CF039F93B689E
:1046D000A9F80A005B790A2B40F2A0827C4BD3F840
:1046E00000900CF023F989F8080097E20CF028F903
:1046F0006FF4AF6283189BB2C62B98BFA4F89401E5
:104700000CF01EF9A4F840010CF01AF9A4F84201CB
:104710000CF016F9A4F844010CF012F9A4F8D60133
:104720000CF004F984F8EB010CF000F90CF0FEF841
:1047300084F8EC010CF0FAF884F883010CF0F6F838
:1047400084F890010CF0F2F8604BD3F800900CF074
:10475000F7F800EB80004000A9F8560032E10CF0B9
:10476000EFF85C4B23F8190009F10109B9F1080FC2
:10477000F5D153E253790F2B7FF406AE0CF0D6F847
:10478000072881463FF600AE029BD3F800A00CF04C
:10479000D7F80E2303FB09F9029BCA44AAF81901B2
:1047A000D3F800A00CF0CCF8CA44029BAAF81B0175
:1047B000D3F800A00CF0C4F8CA44029BAAF81D016B
:1047C000D3F800A00CF0B2F8CA44029B8AF81F018B
:1047D000D3F800A00CF0AAF8CA44029B8AF8200182
:1047E000D3F800A00CF0A2F8CA44029B8AF8210179
:1047F000D3F800A00CF09AF8CA44029B8AF8220170
:10480000D3F800A00CF0A6F8D144C9F8230105E2C2
:104810000CF08CF80F2881463FF6B6AD0CF086F808
:10482000C9EBC90904EB090383F8D00003F1D009EF
:104830000CF07CF889F801000CF078F889F8020097
:104840000CF074F889F803000CF070F889F8040093
:104850000CF06CF889F805000CF068F889F806008F
:104860000CF08CFEDAE12B785B0700F1D7810AF0BF
:10487000A3FF03F057FB03F01FFCCFE12B78580791
:1048800000F1CC81144B4FF4C8721A80C6E12B782A
:10489000590700F1C381114A137843F004033CE047
:1048A0002B785A07E5D52CE20CF040F80B4B1A7820
:1048B000B0B142F0020215E0DC990108E8110020D5
:1048C000AC0E0020B00E002016000020F80F0020D3
:1048D00020100020962C0020740E0020A01800202C
:1048E00022F002021A700CF021F8D84BDFF89093F6
:1048F00018700CF02FF8C9F800000CF02BF8C9F86C
:1049000004000CF01DF8D24B18800CF019F8D14BB4
:10491000D14A1880137843F0020313707EE10CF043
:1049200005F803900CF016F883460CF013F8824655
:104930000CF010F881460CF003F80CF001F80BF0C5
:10494000F5FF039BA3B9C54B1020C3F800B0C3F813
:1049500004A003F094FAC24A137843F001031370E1
:10496000B9F1000F00F05A81BE4BC3F8009055E139
:10497000102B40F05381BC4BC3F800B0C3F804A027
:10498000B9F1000F02D0B74BC3F80090B648B74B4F
:104990000222011D1A7006F0E5FF3FE1A0600BF056
:1049A000D9FFA3681843A06038E10BF0C9FFA4F851
:1049B00058010BF0C5FFA4F85A010BF0C1FFA4F891
:1049C0005C012BE10BF0B2FF84F878010BF0AEFF35
:1049D00084F87C010BF0AAFF84F87B010BF0A6FFA2
:1049E00084F87D011AE10BF0ABFFA4F87E010BF017
:1049F000A7FFA4F880010BF099FF84F882010BF067
:104A00009FFFA4F8840109E10BF090FF84F88E0168
:104A10000BF096FFA4F898010BF092FFA4F8940114
:104A20000BF08EFFA4F896010BF080FFDAF800304F
:104A300084F88F015B79082B40F2F0800BF080FF47
:104A4000A4F89A010BF07CFFA4F89C01E6E092F830
:104A500005900323B9FBF3F9B9F1120F3FF694ACBB
:104A6000DFF820A24FF0000BCB4580F0D7800BF091
:104A70005DFF8AF89E010BF063FF40F2ED23984240
:104A800005DD40F6CA039842A8BF184601E040F28F
:104A9000EE20A0F2EE20192390FBF3F00BF1010BB6
:104AA0008AF89F010AF1020ADEE70BF03FFF84F863
:104AB0009001B3E00BF03AFF04EB090309F101099F
:104AC000B9F1080F83F88601F4D1A7E00BF02EFFAF
:104AD000C4F8089060710BF03DFFA3681843A06014
:104AE0000BF024FF84F88E010BF02AFFA4F8580184
:104AF0000BF026FFA4F85A010BF022FFA4F85C018A
:104B00000BF01EFFA4F87E010BF01AFFA4F8800141
:104B100084E053794FF0070AB3FBFAF2C2EBC2020A
:104B20009A1A12F0FF0F7FF42FACB3FBFAFA0AF1D6
:104B3000FF3A5FFA8AFABAF1FF0F6FD00BF0F6FE78
:104B40005FFA80FB4FFA8BF004F090F98146002861
:104B50003FF41AAC80F800B00BF0F2FEA9F80200A6
:104B60000BF0E4FE89F804000BF0E0FE89F8050084
:104B70000BF0DCFE89F807000BF0D8FE89F8060080
:104B8000D5E7DFF8009109F1400A0BF0D9FEA9F84A
:104B9000AC020BF0CBFE89F8AE020BF0C7FE09F1B8
:104BA000040989F8AB02D145EFD137E00BF0BEFE26
:104BB0001F2881463FF6E8AB3B685B79082B7FF402
:104BC000E3AB0BF0BDFE09F18A0904EB890900F0A3
:104BD0003F00A9F806000BF0B3FEB9F806308001DB
:104BE00000F4FE501843A9F806000BF09FFE0001E8
:104BF00089F804000BF09AFE99F8043000F00F00D9
:104C0000184389F804000BF091FE89F805000AF0BA
:104C1000DBF903E0164B012283F8352000200BF06E
:104C2000D1FEFFF734BA134B98590CF0A8FA18B913
:104C300032200CF0D2F9F6E70CF060FC03F048F9F2
:104C40000D4A0E4BDA60FFF730BA00BFA6180020FD
:104C5000A4180020A21800202610002028100020F0
:104C6000A01800203810002030100020B80E0020BE
:104C7000480F0020102800200400FA0500ED00E095
:104C8000A8180020A81000200C2840D00A2847D1DE
:104C9000504D51480BF01AFF2846232112F02BF9F2
:104CA00008B1401B20602368002B5CD149480021DB
:104CB0003022236012F0E9F898F8003053BB474BDC
:104CC0001B689B0614D5464B46491B688A6B9A1A8B
:104CD000002A0DDB444A1278042A09D903F512335D
:104CE00003F5F873414A8B63D36883F01003D360F4
:104CF0003F4B9B68002B69D03E4811B0BDE8F04F98
:104D0000184707F0F5FEFFF7C2B90C2804D13A485E
:104D10000BF0DCFE39480DE07F2812D1FFF721B9F6
:104D20000D28B5D07F2809D12A4A013B00213448FB
:104D30002360D1540BF0CAFEFFF713B92F2B3FF6B7
:104D400010A9A0F12002D2B25E2A3FF60AA913B937
:104D500020283FF406A95A1C22601E4AD0540BF0AA
:104D6000ADFEFFF7FEB85A1EA95C202901D11346FB
:104D70009AE7184A00212360D154224B224DD3F8E0
:104D800000A0D5F800B0DFF84C90584612F0C1F8FA
:104D9000064659463246484612F0C4F81B4A28B91E
:104DA00019F8063053445B785B0703D01035954201
:104DB000E7D306E0954204D2701CEB68484498475C
:104DC00002E013480BF082FE00236FE711B0BDE84C
:104DD000F08F00BF042A0020FDC801089C180020A5
:104DE00094330020480F0020A6180020000C01403A
:104DF00094310020840F002091BB01088CBB010876
:104E0000B8BB010860000020A8A3010878A501082C
:104E10009CBB01089148F0B50368914A9C8AA4B2F2
:104E2000E1B211F0010F2ED0198821F400610904BC
:104E3000090C1980198889B241F480611980002118
:104E40001170517899B1917811B9D178FF290ED1AB
:104E5000012191701179022901BF198889B241F4A9
:104E600000611980517941F001011982E1E0517925
:104E700001F0FE011982D378FF2B00F0DA80784B25
:104E8000FF211970D5E08E073AD5BFF35F8F1479F3
:104E9000E4B2012C13D1517889B1917879B1198894
:104EA00021F480610904090C1980BFF35F8F198B0D
:104EB0001988947189B241F4007119801BE0198B33
:104EC000BFF35F8F14796649022C0AD14C7844B144
:104ED000897831B1198821F480610904090C19809D
:104EE000A1E014795E49032C05D14C781CB1897876
:104EF000002940F09880998889B241F4806197E058
:104F00004D0756D5012191715178002937D09178FC
:104F1000002934D011791C88022911781DD924F474
:104F200080642404240C1C801E8A9568CCB2F6B2DE
:104F300049B26E54198889B241F400711980016830
:104F4000A31C13700B8A0134DBB264B22B558B881F
:104F50009BB243F480638B8026E0A4B244F40074D7
:104F60001C801D8A9668CCB2EDB249B275541B8A7A
:104F7000611C49B2DBB203347354147014E09178AD
:104F8000374C09B9217B41B1198889B241F40071CC
:104F9000198013780133137006E0198889B241F43F
:104FA000807119800123A37001680B88DB05FCD494
:104FB0003FE001F0400101F0FF05E1B114781F8AE4
:104FC0009668E5B2691C64B2FFB23755C9B216796A
:104FD000117049B2CC1CA64201BF9C8824F48064A5
:104FE0002404240C08BF9C8013798B4221D11C4BD4
:104FF00002351D701DE027061BD511784CB2661CCA
:105000000AD0156901312C5DC9B21C821479117066
:1050100049B28C420DD106E0D178157019825178D1
:1050200009B9117929B9998821F480610904090C19
:105030009980137992F9004001339C4208490CD1C0
:1050400000238B708B7933B101688B8823F4407314
:105050001B041B0C8B8000231375F0BDBC270020A4
:10506000880F00206B4B6C4A2DE9F04F5E899469E4
:105070004FEA062AB4EB0A0A9C884FF000054FEA73
:1050800004481C894FF0000BA4FB0A6765EB0B0B6F
:1050900004FB0B77F40944EA476418EB04065C88C8
:1050A0004FF000094FEAE7154FEAC438DC8849EBB6
:1050B000050787B0CDE90467A4FB0A6704FB0B77FB
:1050C000340A44EA076418EB04064FEA27259C8952
:1050D0004FF0000949EB0507CDE90067AAFB04671B
:1050E00004FB0B77F40D44EA472414F5FA664FEA03
:1050F000E75545F10007B6F5FA6F77F10003CDE902
:105100000267964666DADDE90489A4FB046704FBBE
:1051100005F34FF0050C07EB4307A6FB0C230CFB34
:1051200007335F104FEA3206B8EB06084FEA9206E3
:1051300046EA837669EB07099F10DDE90023921B9D
:1051400063EB0703CDE90023DDE90267334A4FF043
:10515000FF33964277EB0303CDE9048927DA40F663
:10516000AC520023A4185D4104FB05F3A4FB0445E5
:105170006FF0060205EB4305664202FB0566A4FBE1
:105180000223334418EB020649EB0307CDE9046719
:105190000B26A4FB062306FB0533DDE900455B1067
:1051A0004FEA3202A41A65EB0305CDE90045DDE9BB
:1051B00002450AFB0BF3AAFB0AAB0BEB430B4FEACE
:1051C000DA7242EA4B02A41A4FEAEB7365EB03056D
:1051D000CDE90245DEF81C40009B019DA4FB0323A2
:1051E00004FB05334FEA525848EAC3284FEA635993
:1051F000DDE90423B8EB020269EB03039946D30B04
:1052000043EA494300B1036009B1029B0B6007B058
:10521000BDE8F08F54020020880F002024FAFFFF21
:105220002DE9F041324C334D62892B8CB4F9048066
:105230009A1A2389B4F902E05A43B4F91230D6130A
:10524000B4F91420DB02324493FBF2F232440A2612
:10525000E2615643A2F57A6202FB02F3B4F90EC092
:1052600002FB0EFE02FB08F2B4F90C801B130CFBD0
:1052700003FC03FB08F31B1403EB62320232E388E6
:10528000921002F5004253434CF25032B4F92070B0
:105290004FEAEE2EB4F900400EEBEC2C0CEB84043C
:1052A000BC406D6A0234A5EBA4043A4162434FEA64
:1052B000D3384EBFB2FBF8F35400B4FBF8F340F61A
:1052C000DE3448BF5B001A12524362430A4C083670
:1052D0005C43241404EB224202F6CF62361103EB46
:1052E000221300B1036001B10E60BDE8F08100BF80
:1052F00068020020880F002043E3FFFF024B4FF4B9
:1053000080521A80704700BF2800002010B5224C40
:105310002368998A89B211F4706F1EBF1F4A012059
:1053200082F8280011F4E06F2BD01A8B9A88890537
:1053300022F480624FEA02424FEA12429A8020D45D
:105340001A8892051DD41A88D0050FD51A88D10560
:10535000FCD41A8892B242F400721A801A8892051C
:10536000FCD40F4B187807F051F90AE01A8892B272
:1053700042F400721A809A8822F440721204120CCD
:105380009A802268938A23F470631B041B0C938217
:10539000024B00221A7510BDBC270020880F002088
:1053A000C0270020054A08B5138801339BB213803B
:1053B000034B187807F02AF9002008BDBA0F002027
:1053C000C027002008B54FF4804007F0B9FD012840
:1053D00001BF044B4FF480425A61034B08BF83F86E
:1053E000290008BD00040140880F002010B5054CBD
:1053F0002368186907F0A4FD18B123681A69024BE5
:105400005A6110BD4C02002000040140F8B50F465F
:105410001646074C4FF48055656140F080000CF053
:10542000D3F93846002132460CF098F92561F8BDD1
:10543000000C014013B50446694643200622FFF7DD
:10544000E5FF9DF800209DF80130012043EA02238A
:1054500023809DF802209DF8033043EA02236380F5
:105460009DF804209DF8053043EA0223A38002B092
:1054700010BD13B5044669463B200622FFF7C6FF60
:105480009DF800209DF80130012043EA022323808B
:105490009DF802209DF8033043EA022363809DF8C3
:1054A00004209DF8053043EA0223A38002B010BD1A
:1054B00070B50E46054C4FF4805565610CF084F9CB
:1054C00030460CF081F9256170BD00BF000C014031
:1054D0001D4B07B51A681D4B9A420ED14FF400536D
:1054E000ADF8043002238DF80730042318480DEB83
:1054F00003018DF8063006F038FE80216B20FFF79F
:10550000D7FF64200BF069FD00216B20FFF7D0FF6F
:1055100064200BF062FD6B200121FFF7C9FF1B2007
:105520001821FFF7C5FF1C201021FFF7C1FF094B11
:105530001A201978FFF7BCFF19200021FFF7B8FFE8
:1055400003B05DF804FB00BF3C000020001BB70067
:105550000010014002000020F0B5264D85B095F8FE
:105560002A30002B44D1244C2368002B40D01A68E9
:10557000224E12B1B1690A43B2619A889868ADF8B7
:10558000002002228DF80320694604228DF80220B3
:1055900006F0EBFDB369002743F00103B361236814
:1055A0000126197D187B06F0CBFD15480BF0D2FDC6
:1055B0002368144A1B695361029308230DEB03000F
:1055C0008DF80D308DF80C708DF80E6007F089FCA9
:1055D000236801A85B7D8DF806708DF804300323E5
:1055E0008DF805308DF807600CF09AF885F82A6080
:1055F00005B0F0BD880F00204C02002000100240D2
:10560000ED5300080004014008B5FFF7A5FF074B64
:105610001B7813B1012B03D008BD4FF4006201E0E9
:105620004FF48052024B1A8008BD00BF5102002087
:105630002800002010B51E4C4000C0B2A3602361BA
:105640001C4B6071E1700120002121736070227198
:105650002075186884F8281040B383889B0515D4FA
:105660000388D9050DD447F230530288920502D53C
:10567000013BFAD112E08BB103889BB243F48073F3
:10568000038083889BB243F44073838047F2305396
:10569000227D12B1013BFBD100E013B9BDE81040FF
:1056A00080E6034B93F8280080F0010010BD00BF96
:1056B000880F0020BC27002007B5002101AB032282
:1056C0007720FFF7B7FF9DF805309DF804001B0217
:1056D00043EA00439DF80600184303B05DF804FB5D
:1056E00008B5FFF7E9FF014BD86108BD880F00201E
:1056F00008B5FFF7E1FF014B986108BD880F002056
:10570000104B13B51B78104C13B194F82930B3B17A
:10571000032201AB7720F621FFF78CFF9DF80530BF
:105720009DF804201B0243EA02439DF80620134320
:10573000064AB2F92020C2F10802D340636202B0E7
:1057400010BD00BF03000020880F00206802002069
:105750000B4B13B51B780B4C13B194F8293063B184
:10576000022201AB7720F621FFF764FF9DF80420A9
:105770009DF8053043EA0223238402B010BD00BF28
:1057800003000020880F002013B5062204464321A1
:1057900068206B46FFF74EFFA8B19DF800209DF8EA
:1057A0000130012043EA022323809DF802209DF866
:1057B000033043EA022363809DF804209DF80530FE
:1057C00043EA0223A38002B010BD13B506220446AB
:1057D0003B2168206B46FFF72DFFA8B19DF8002004
:1057E0009DF80130012043EA022323809DF8022026
:1057F0009DF8033043EA022363809DF804209DF85E
:10580000053043EA0223A38002B010BD13B5022283
:1058100004461B21682001ABFFF70CFF70B19DF817
:1058200004209DF8053043EA022303F54E5310335C
:105830004FF48C7293FBF2F32333238002B010BD3C
:1058400013B5062204461D2168206B46FFF7F2FEC1
:10585000A0B19DF800209DF8013043EA0223238087
:105860009DF802209DF8033043EA022363809DF8EF
:1058700004209DF8053043EA0223A38002B010BD46
:1058800013B50622044601211C206B46FFF7D2FE09
:1058900008B39DF801309DF80020042143EA02225C
:1058A00042F38D0292FBF1F29DF8023022809DF8C6
:1058B000032042EA032242F38D0292FBF1F29DF8AB
:1058C000043062809DF8052042EA032343F38D03F0
:1058D00093FBF1F3A38002B010BD13B5062204467A
:1058E000022118206B46FFF7A5FEB8B19DF80030E5
:1058F0009DF801209B0803EB022323809DF80230D2
:105900009DF803209B0803EB022363809DF804307D
:105910009DF805209B0803EB0223A38002B010BD75
:10592000314B2DE9F3411B780546002B3CD0002478
:1059300026462746A04601345320322108226B46D2
:10594000E4B2FFF777FE08B900204AE09DF8012095
:105950009DF80030202C03EB02231BB29DF803209E
:1059600098449DF8023003EB02231BB21F449DF8BC
:1059700005209DF8043003EB02231BB21E449DF862
:10598000073003F07F0301D0002BD4D198FBF4F84B
:1059900097FBF4F796FBF4F6144BA5F800806F80A4
:1059A000AE8083F82B401CE05320322106226B4648
:1059B000FFF740FE0028C7D09DF801209DF8003079
:1059C00003EB02232B809DF803209DF8023003EBAC
:1059D00002236B809DF805209DF8043003EB022321
:1059E000AB8002B0BDE8F08150020020880F00209B
:1059F00013B5204B400002ACC0B2587104F8012D21
:105A0000D970012200211A7359701A711A751A4A35
:105A10001C6110689C6083F8281040B3828892054E
:105A200015D40288D4050DD447F230520188890577
:105A300002D5013AFAD112E08AB1028892B242F458
:105A400080720280828892B242F44072828047F271
:105A50003052197D11B1013AFBD100E012B9FFF7C4
:105A6000A1FC04E0034B93F8280080F0010002B091
:105A700010BD00BF880F0020BC27002077204821E0
:105A80000122B5E7772058210122B1E7064B00211A
:105A900093F82020054B9201343283F829107720A7
:105AA000F42102F0FC02A3E768020020880F002026
:105AB000034B002283F829207720F4212E2297E738
:105AC000880F002008B5FFF747FD6B218022682072
:105AD000FFF78EFF64200BF080FA19210022682066
